{
  "contractName": "Ballot",
  "abi": [
    {
      "inputs": [
        {
          "internalType": "string[]",
          "name": "proposalNames",
          "type": "string[]"
        }
      ],
      "stateMutability": "nonpayable",
      "type": "constructor"
    },
    {
      "inputs": [],
      "name": "chairperson",
      "outputs": [
        {
          "internalType": "address",
          "name": "",
          "type": "address"
        }
      ],
      "stateMutability": "view",
      "type": "function",
      "constant": true
    },
    {
      "inputs": [
        {
          "internalType": "uint256",
          "name": "",
          "type": "uint256"
        }
      ],
      "name": "proposals",
      "outputs": [
        {
          "internalType": "string",
          "name": "name",
          "type": "string"
        },
        {
          "internalType": "uint256",
          "name": "voteCount",
          "type": "uint256"
        }
      ],
      "stateMutability": "view",
      "type": "function",
      "constant": true
    },
    {
      "inputs": [
        {
          "internalType": "address",
          "name": "",
          "type": "address"
        }
      ],
      "name": "voters",
      "outputs": [
        {
          "internalType": "bool",
          "name": "voted",
          "type": "bool"
        },
        {
          "internalType": "uint256",
          "name": "weight",
          "type": "uint256"
        },
        {
          "internalType": "uint256",
          "name": "vote",
          "type": "uint256"
        }
      ],
      "stateMutability": "view",
      "type": "function",
      "constant": true
    },
    {
      "inputs": [
        {
          "internalType": "address",
          "name": "voter",
          "type": "address"
        }
      ],
      "name": "giveRightToVote",
      "outputs": [],
      "stateMutability": "nonpayable",
      "type": "function"
    },
    {
      "inputs": [
        {
          "internalType": "uint256",
          "name": "proposal",
          "type": "uint256"
        }
      ],
      "name": "vote",
      "outputs": [],
      "stateMutability": "nonpayable",
      "type": "function"
    },
    {
      "inputs": [],
      "name": "winningProposal",
      "outputs": [
        {
          "internalType": "uint256",
          "name": "winning_proposal",
          "type": "uint256"
        }
      ],
      "stateMutability": "view",
      "type": "function",
      "constant": true
    },
    {
      "inputs": [],
      "name": "winningName",
      "outputs": [
        {
          "internalType": "string",
          "name": "winning_name",
          "type": "string"
        }
      ],
      "stateMutability": "view",
      "type": "function",
      "constant": true
    }
  ],
  "bytecode": "0x60806040523480156200001157600080fd5b50604051620012903803806200129083398181016040528101906200003791906200041d565b33600260006101000a81548173ffffffffffffffffffffffffffffffffffffffff021916908373ffffffffffffffffffffffffffffffffffffffff1602179055506001806000600260009054906101000a900473ffffffffffffffffffffffffffffffffffffffff1673ffffffffffffffffffffffffffffffffffffffff1673ffffffffffffffffffffffffffffffffffffffff1681526020019081526020016000206001018190555060005b81518110156200018657600060405180604001604052808484815181106200011157620001106200046e565b5b60200260200101518152602001600081525090806001815401808255809150506001900390600052602060002090600202016000909190919091506000820151816000019081620001639190620006e8565b5060208201518160010155505080806200017d90620007fe565b915050620000e4565b50506200084b565b6000604051905090565b600080fd5b600080fd5b600080fd5b6000601f19601f8301169050919050565b7f4e487b7100000000000000000000000000000000000000000000000000000000600052604160045260246000fd5b620001f282620001a7565b810181811067ffffffffffffffff82111715620002145762000213620001b8565b5b80604052505050565b6000620002296200018e565b9050620002378282620001e7565b919050565b600067ffffffffffffffff8211156200025a5762000259620001b8565b5b602082029050602081019050919050565b600080fd5b600080fd5b600067ffffffffffffffff821115620002935762000292620001b8565b5b6200029e82620001a7565b9050602081019050919050565b60005b83811015620002cb578082015181840152602081019050620002ae565b60008484015250505050565b6000620002ee620002e88462000275565b6200021d565b9050828152602081018484840111156200030d576200030c62000270565b5b6200031a848285620002ab565b509392505050565b600082601f8301126200033a5762000339620001a2565b5b81516200034c848260208601620002d7565b91505092915050565b60006200036c62000366846200023c565b6200021d565b905080838252602082019050602084028301858111156200039257620003916200026b565b5b835b81811015620003e057805167ffffffffffffffff811115620003bb57620003ba620001a2565b5b808601620003ca898262000322565b8552602085019450505060208101905062000394565b5050509392505050565b600082601f830112620004025762000401620001a2565b5b81516200041484826020860162000355565b91505092915050565b60006020828403121562000436576200043562000198565b5b600082015167ffffffffffffffff8111156200045757620004566200019d565b5b6200046584828501620003ea565b91505092915050565b7f4e487b7100000000000000000000000000000000000000000000000000000000600052603260045260246000fd5b600081519050919050565b7f4e487b7100000000000000000000000000000000000000000000000000000000600052602260045260246000fd5b60006002820490506001821680620004f057607f821691505b602082108103620005065762000505620004a8565b5b50919050565b60008190508160005260206000209050919050565b60006020601f8301049050919050565b600082821b905092915050565b600060088302620005707fffffffffffffffffffffffffffffffffffffffffffffffffffffffffffffffff8262000531565b6200057c868362000531565b95508019841693508086168417925050509392505050565b6000819050919050565b6000819050919050565b6000620005c9620005c3620005bd8462000594565b6200059e565b62000594565b9050919050565b6000819050919050565b620005e583620005a8565b620005fd620005f482620005d0565b8484546200053e565b825550505050565b600090565b6200061462000605565b62000621818484620005da565b505050565b5b8181101562000649576200063d6000826200060a565b60018101905062000627565b5050565b601f821115620006985762000662816200050c565b6200066d8462000521565b810160208510156200067d578190505b620006956200068c8562000521565b83018262000626565b50505b505050565b600082821c905092915050565b6000620006bd600019846008026200069d565b1980831691505092915050565b6000620006d88383620006aa565b9150826002028217905092915050565b620006f3826200049d565b67ffffffffffffffff8111156200070f576200070e620001b8565b5b6200071b8254620004d7565b620007288282856200064d565b600060209050601f8311600181146200076057600084156200074b578287015190505b620007578582620006ca565b865550620007c7565b601f19841662000770866200050c565b60005b828110156200079a5784890151825560018201915060208501945060208101905062000773565b86831015620007ba5784890151620007b6601f891682620006aa565b8355505b6001600288020188555050505b505050505050565b7f4e487b7100000000000000000000000000000000000000000000000000000000600052601160045260246000fd5b60006200080b8262000594565b91507fffffffffffffffffffffffffffffffffffffffffffffffffffffffffffffffff820362000840576200083f620007cf565b5b600182019050919050565b610a35806200085b6000396000f3fe608060405234801561001057600080fd5b506004361061007d5760003560e01c80632e4176cf1161005b5780632e4176cf146100ed578063609ff1bd1461010b5780639e7b8d6114610129578063a3ec138d146101455761007d565b80630121b93f14610082578063013cf08b1461009e5780631f9ff6d7146100cf575b600080fd5b61009c60048036038101906100979190610619565b610177565b005b6100b860048036038101906100b39190610619565b610251565b6040516100c69291906106e5565b60405180910390f35b6100d761030d565b6040516100e49190610715565b60405180910390f35b6100f56103c9565b6040516101029190610778565b60405180910390f35b6101136103ef565b6040516101209190610793565b60405180910390f35b610143600480360381019061013e91906107da565b610477565b005b61015f600480360381019061015a91906107da565b6105a7565b60405161016e93929190610822565b60405180910390f35b6000600160003373ffffffffffffffffffffffffffffffffffffffff1673ffffffffffffffffffffffffffffffffffffffff168152602001908152602001600020905060008160010154116101cb57600080fd5b8060000160009054906101000a900460ff16156101e757600080fd5b60018160000160006101000a81548160ff02191690831515021790555081816002018190555080600101546000838154811061022657610225610859565b5b9060005260206000209060020201600101600082825461024691906108b7565b925050819055505050565b6000818154811061026157600080fd5b90600052602060002090600202016000915090508060000180546102849061091a565b80601f01602080910402602001604051908101604052809291908181526020018280546102b09061091a565b80156102fd5780601f106102d2576101008083540402835291602001916102fd565b820191906000526020600020905b8154815290600101906020018083116102e057829003601f168201915b5050505050908060010154905082565b606060006103196103ef565b8154811061032a57610329610859565b5b906000526020600020906002020160000180546103469061091a565b80601f01602080910402602001604051908101604052809291908181526020018280546103729061091a565b80156103bf5780601f10610394576101008083540402835291602001916103bf565b820191906000526020600020905b8154815290600101906020018083116103a257829003601f168201915b5050505050905090565b600260009054906101000a900473ffffffffffffffffffffffffffffffffffffffff1681565b6000806000905060005b60008054905081101561047257816000828154811061041b5761041a610859565b5b906000526020600020906002020160010154111561045f576000818154811061044757610446610859565b5b90600052602060002090600202016001015491508092505b808061046a9061094b565b9150506103f9565b505090565b600260009054906101000a900473ffffffffffffffffffffffffffffffffffffffff1673ffffffffffffffffffffffffffffffffffffffff163373ffffffffffffffffffffffffffffffffffffffff16036105a457600160008273ffffffffffffffffffffffffffffffffffffffff1673ffffffffffffffffffffffffffffffffffffffff16815260200190815260200160002060000160009054906101000a900460ff161561055c576040517f08c379a0000000000000000000000000000000000000000000000000000000008152600401610553906109df565b60405180910390fd5b60018060008373ffffffffffffffffffffffffffffffffffffffff1673ffffffffffffffffffffffffffffffffffffffff168152602001908152602001600020600101819055505b50565b60016020528060005260406000206000915090508060000160009054906101000a900460ff16908060010154908060020154905083565b600080fd5b6000819050919050565b6105f6816105e3565b811461060157600080fd5b50565b600081359050610613816105ed565b92915050565b60006020828403121561062f5761062e6105de565b5b600061063d84828501610604565b91505092915050565b600081519050919050565b600082825260208201905092915050565b60005b83811015610680578082015181840152602081019050610665565b60008484015250505050565b6000601f19601f8301169050919050565b60006106a882610646565b6106b28185610651565b93506106c2818560208601610662565b6106cb8161068c565b840191505092915050565b6106df816105e3565b82525050565b600060408201905081810360008301526106ff818561069d565b905061070e60208301846106d6565b9392505050565b6000602082019050818103600083015261072f818461069d565b905092915050565b600073ffffffffffffffffffffffffffffffffffffffff82169050919050565b600061076282610737565b9050919050565b61077281610757565b82525050565b600060208201905061078d6000830184610769565b92915050565b60006020820190506107a860008301846106d6565b92915050565b6107b781610757565b81146107c257600080fd5b50565b6000813590506107d4816107ae565b92915050565b6000602082840312156107f0576107ef6105de565b5b60006107fe848285016107c5565b91505092915050565b60008115159050919050565b61081c81610807565b82525050565b60006060820190506108376000830186610813565b61084460208301856106d6565b61085160408301846106d6565b949350505050565b7f4e487b7100000000000000000000000000000000000000000000000000000000600052603260045260246000fd5b7f4e487b7100000000000000000000000000000000000000000000000000000000600052601160045260246000fd5b60006108c2826105e3565b91506108cd836105e3565b92508282019050808211156108e5576108e4610888565b5b92915050565b7f4e487b7100000000000000000000000000000000000000000000000000000000600052602260045260246000fd5b6000600282049050600182168061093257607f821691505b602082108103610945576109446108eb565b5b50919050565b6000610956826105e3565b91507fffffffffffffffffffffffffffffffffffffffffffffffffffffffffffffffff820361098857610987610888565b5b600182019050919050565b7f54686520757365722068617320616c726561647920766f746564000000000000600082015250565b60006109c9601a83610651565b91506109d482610993565b602082019050919050565b600060208201905081810360008301526109f8816109bc565b905091905056fea2646970667358221220e156e3eb0644f98f8dc3458ba51be655f4b5a17b60baa4d500458d1a8e42cad164736f6c63430008110033",
  "immutableReferences": {},
  "source": "pragma solidity >=0.7.0;\n\ncontract Ballot {\n\n    struct Voter {\n        bool voted;\n        uint weight;\n        uint vote;\n    }\n\n    struct Proposal {\n        string name;\n        uint voteCount;\n    }\n\n    Proposal[] public proposals;\n    mapping(address => Voter) public voters;\n\n    address public chairperson;\n    \n    constructor(string[] memory proposalNames) {\n        chairperson = msg.sender;\n        voters[chairperson].weight = 1;\n        for (uint i = 0; i < proposalNames.length; i++) {\n            proposals.push(Proposal({\n                name: proposalNames[i],\n                voteCount: 0\n            }));\n        }\n    }\n\n    modifier onlyChairman() {\n        if(msg.sender == chairperson)\n            _;\n    }\n\n    function giveRightToVote(address voter) public onlyChairman {\n        require(!voters[voter].voted, \"The user has already voted\");\n        voters[voter].weight = 1;\n    }\n\n    function vote(uint proposal) public {\n        Voter storage voter = voters[msg.sender];\n        require(voter.weight > 0);\n        require(!voter.voted);\n        voter.voted = true;\n        voter.vote = proposal;\n\n        proposals[proposal].voteCount += voter.weight;\n    }\n\n    function winningProposal() public view returns (uint winning_proposal) {\n        uint winProposal = 0;\n        for (uint i = 0; i < proposals.length; i++) {\n            if (proposals[i].voteCount > winProposal) {\n                winProposal = proposals[i].voteCount;\n                winning_proposal = i;\n            }\n        }\n    }\n\n    function winningName() public view returns (string memory winning_name) {\n        winning_name = proposals[winningProposal()].name;\n    }\n}",
  "sourcePath": "/home/daniel/projects/blockchain/votingApp/contracts/Ballot.sol",
  "compiler": {
    "name": "solc",
    "version": "0.8.17+commit.8df45f5f.Emscripten.clang"
  },
  "schemaVersion": "3.4.10",
  "updatedAt": "2022-10-15T16:12:54.821Z",
  "networkType": "ethereum",
  "devdoc": {
    "kind": "dev",
    "methods": {},
    "version": 1
  },
  "userdoc": {
    "kind": "user",
    "methods": {},
    "version": 1
  }
}